:020000040000fa
:080000000002040000000000f2
:020000040000fa
:040008009003000061
:020000040000fa
:04000c00900300005d
:020000040000fa
:040010009003000059
:020000040000fa
:040014009003000055
:020000040000fa
:040018009003000051
:020000040000fa
:04001c00900300004d
:020000040000fa
:040020009003000049
:020000040000fa
:040024009003000045
:020000040000fa
:040028009003000041
:020000040000fa
:04002c00900300003d
:020000040000fa
:040030009003000039
:020000040000fa
:04003400d8020000ee
:020000040000fa
:040038009003000031
:020000040000fa
:04003c00900300002d
:020000040000fa
:040040009003000029
:020000040000fa
:040044009003000025
:020000040000fa
:040048009003000021
:020000040000fa
:04004c00900300001d
:020000040000fa
:040050009003000019
:020000040000fa
:040054009003000015
:020000040000fa
:040058009003000011
:020000040000fa
:04005c00900300000d
:020000040000fa
:040060009003000009
:020000040000fa
:040064009003000005
:020000040000fa
:040068009003000001
:020000040000fa
:04006c0090030000fd
:020000040000fa
:0400700090030000f9
:020000040000fa
:040074006c03000019
:020000040000fa
:0400780090030000f1
:020000040000fa
:04007c0090030000ed
:020000040000fa
:0400800090030000e9
:020000040000fa
:0400840090030000e5
:020000040000fa
:0400880090030000e1
:020000040000fa
:04008c0090030000dd
:020000040000fa
:0400900090030000d9
:020000040000fa
:0400940090030000d5
:020000040000fa
:0400980090030000d1
:020000040000fa
:04009c0090030000cd
:020000040000fa
:0400a00090030000c9
:020000040000fa
:0400a40090030000c5
:020000040000fa
:0400a80090030000c1
:020000040000fa
:0400ac0090030000bd
:020000040000fa
:0400b00090030000b9
:020000040000fa
:0400b40090030000b5
:020000040000fa
:0400b80090030000b1
:020000040000fa
:0400bc0090030000ad
:020000040000fa
:0400c00090030000a9
:020000040000fa
:0400c40090030000a5
:020000040000fa
:0400c80090030000a1
:020000040000fa
:0400cc00900300009d
:020000040000fa
:0400d0009003000099
:020000040000fa
:0400d4009003000095
:020000040000fa
:0400d8009003000091
:020000040000fa
:0400dc00900300008d
:020000040000fa
:0400e0009003000089
:020000040000fa
:0400e4009003000085
:020000040000fa
:0400e8009003000081
:020000040000fa
:0400ec00900300007d
:020000040000fa
:0400f0009003000079
:020000040000fa
:0400f4009003000075
:020000040000fa
:0400f8009003000071
:020000040000fa
:0400fc00900300006d
:020000040000fa
:040100009003000068
:020000040000fa
:040104009003000064
:020000040000fa
:040108009003000060
:020000040000fa
:04010c00900300005c
:020000040000fa
:040110009003000058
:020000040000fa
:040114009003000054
:020000040000fa
:040118009003000050
:020000040000fa
:04011c00900300004c
:020000040000fa
:040120009003000048
:020000040000fa
:040124009003000044
:020000040000fa
:040128009003000040
:020000040000fa
:04012c00900300003c
:020000040000fa
:040130009003000038
:020000040000fa
:040134009003000034
:020000040000fa
:040138009003000030
:020000040000fa
:04013c00900300002c
:020000040000fa
:040140009003000028
:020000040000fa
:040144009003000024
:020000040000fa
:040148009003000020
:020000040000fa
:04014c00900300001c
:020000040000fa
:040150009003000018
:020000040000fa
:040154009003000014
:020000040000fa
:040158009003000010
:020000040000fa
:04015c00900300000c
:020000040000fa
:040160009003000008
:020000040000fa
:040164009003000004
:020000040000fa
:04020800900300005f
:020000040000fa
:04020c00900300005b
:020000040000fa
:040210009003000057
:020000040000fa
:040214009003000053
:020000040000fa
:04021800900300004f
:020000040000fa
:04021c00900300004b
:020000040000fa
:040220009003000047
:020000040000fa
:040224009003000043
:020000040000fa
:04022800900300003f
:020000040000fa
:04022c00900300003b
:020000040000fa
:040230009003000037
:020000040000fa
:040234009003000033
:020000040000fa
:04023800900300002f
:020000040000fa
:04023c00900300002b
:020000040000fa
:040240009003000027
:020000040000fa
:040244009003000023
:020000040000fa
:04024800900300001f
:020000040000fa
:04024c00900300001b
:020000040000fa
:040250009003000017
:020000040000fa
:040254009003000013
:020000040000fa
:04025800900300000f
:020000040000fa
:04025c00900300000b
:020000040000fa
:040260009003000007
:020000040000fa
:040264009003000003
:020000040000fa
:0402680090030000ff
:020000040000fa
:04026c0090030000fb
:020000040000fa
:0402700090030000f7
:020000040000fa
:0402740090030000f3
:020000040000fa
:0402780090030000ef
:020000040000fa
:04027c0090030000eb
:020000040000fa
:0402800090030000e7
:020000040000fa
:0402840090030000e3
:020000040000fa
:0402880090030000df
:020000040000fa
:04028c0090030000db
:020000040000fa
:0402900090030000d7
:020000040000fa
:0402940090030000d3
:020000040000fa
:0402980090030000cf
:020000040000fa
:04029c0090030000cb
:020000040000fa
:0402a00090030000c7
:020000040000fa
:0402a40090030000c3
:020000040000fa
:0402a80090030000bf
:020000040000fa
:0402ac0090030000bb
:020000040000fa
:0402b00090030000b7
:020000040000fa
:0402b40090030000b3
:020000040000fa
:0402b80090030000af
:020000040000fa
:0402bc0090030000ab
:020000040000fa
:0402c00090030000a7
:020000040000fa
:0402c40090030000a3
:020000040000fa
:0402c800900300009f
:020000040000fa
:0402cc00900300009b
:020000040000fa
:0402d0009003000097
:020000040000fa
:0402d4009003000093
:020000040000fa
:0402d800900300008f
:020000040000fa
:0402dc00900300008b
:020000040000fa
:0402e0009003000087
:020000040000fa
:0402e4009003000083
:020000040000fa
:0402e800900300007f
:020000040000fa
:0402ec00900300007b
:020000040000fa
:0402f0009003000077
:020000040000fa
:0402f4009003000073
:020000040000fa
:0402f800900300006f
:020000040000fa
:0402fc00900300006b
:020000040000fa
:040300009003000066
:020000040000fa
:040304009003000062
:020000040000fa
:04030800900300005e
:020000040000fa
:04030c00900300005a
:020000040000fa
:040310009003000056
:020000040000fa
:040314009003000052
:020000040000fa
:04031800900300004e
:020000040000fa
:04031c00900300004a
:020000040000fa
:040320009003000046
:020000040000fa
:040324009003000042
:020000040000fa
:04032800900300003e
:020000040000fa
:04032c00900300003a
:020000040000fa
:040330009003000036
:020000040000fa
:040334009003000032
:020000040000fa
:04033800900300002e
:020000040000fa
:04033c00900300002a
:020000040000fa
:040340009003000026
:020000040000fa
:040344009003000022
:020000040000fa
:04034800900300001e
:020000040000fa
:04034c00900300001a
:020000040000fa
:040350009003000016
:020000040000fa
:040354009003000012
:020000040000fa
:04035800900300000e
:020000040000fa
:04035c00900300000a
:020000040000fa
:040360009003000006
:020000040000fa
:040364009003000002
:020000040000fa
:10040000cf8d20000e7f24000e0188000000000028
:10041000000020000000e000020032000001200087
:100420002002880014000700340107000000e000eb
:1004300003003a00e03d21000100200002003700e7
:100440000000200001002000810f70000100320038
:1004500014000700000020000000e000020032004d
:100460000000020000000000f01202000000000086
:100470000040da000000fe004440a90040022000d5
:100480000000e0000300320000002000a00188000e
:100490004440a800000006008a1f78008b1f7800e7
:1004a0000000060091018800800478000000eb0045
:1004b0001a003700e284440032a0b4009905ba0063
:1004c000e284440032a0b4009906ba00e2844400f9
:1004d00032a0b4000006eb00476fde00fd07b2005b
:1004e000636ce10003003a00ebff07000000eb0043
:1004f0000a003700606ce10004003a00005deb0088
:100500008b05e900fdff3e00040037006168e10053
:10051000010032000086eb000b00070019c7ba008b
:100520001905ba000e04e00003003a000a00e000da
:10053000e0ff3a0000000600fe07b2009e018800be
:100540008a047800f5ff3700395dba008b05e900b1
:100550000c003200295dba008b05e900080032006a
:100560000c00e00003003a00e284440032a0b40032
:10057000f5ff370019ddba008b05e900faff3a00f4
:100580008904e800e184440032a0b40000000600c1
:100590008004040000000000aa060400000000001f
:1005a00000000400000000005607040000000000e6
:1005b0003600f800809fbe00829fbe00849fbe0070
:1005c000869fbe000000fa008460a900101680001b
:1005d00000407800614060000080fb0040408800df
:1005e000b0152000100888004140800000408000c5
:1005f0008008dd003040800001007000304088003d
:1006000000408000e80f50002900360000408000c4
:10061000e90f500019003a000a003700314080000d
:10062000104080000008de00e100600020408000f3
:100630000080400020408800104080000000e8005a
:100640001040880010408000e80f5000f3ff360093
:100650002040800061006000004078000004e0005d
:10066000020032000a68ef001100370030408000bd
:10067000004078000ae8b7000d00370005e1a90046
:1006800090202000100888000021ef000ac8bf0059
:100690000000fb00801f7800702d2900801f78006b
:1006a000a5000700e48757009660a8008660a900af
:1006b000004080000000e800004088000080fa0050
:1006c0004f03be004f02be004f01be004f00be00f0
:1006d0003600f90000400600801f78000000fa0094
:1006e0008660a90010168000610060000000e00034
:1006f00008003a0005e1a8000028ef000a68ef00b2
:100700000828ef000628ef000228ef000428ef0079
:100710009660a9000080fa004f00780000400600b3
:100720000040da000000fe000a00fa00110020007c
:10073000b1bf9f00c0bf9f006a80570089040700b7
:100740004fb897000080fa00000006000a00fa0087
:10075000e20f500034003e00a0468000e10f500040
:1007600003003200e20f500011003a000c00370085
:10077000032220000300e00001003a000040da00fc
:100780002002e200020035002822ef0021e2a8004a
:100790002342ab000d003a002342a8000b003700b3
:1007a000032320000300e00001003a000040da00cb
:1007b0003002e200020035003822ef0031e2a800ea
:1007c0003342ab0001003a003342a80082017800b6
:1007d0000b0037003102fb00e10f500004003a002b
:1007e0002322ab00feff3a002411880003003700eb
:1007f0003322ab00feff3a00a41188008301e90018
:100800000300e000f3ff3a00e10f500003003a005c
:100810002302ab00feff32000b0037003302ab00b7
:10082000feff32000800370033002000b3bf9f00f6
:10083000c0bf9f00d1bf9f00e2bf9f006a805700ea
:100840004a0407006fb99700020078000080fa00a0
:10085000000006000a00fa0051002000b1bf9f000e
:10086000c0bf9f006a805700420407005fb897002e
:100870000080fa0000000600889fbe008004780017
:10088000d04680000000e00004003a000e0007009f
:100890000084eb000000e00008003500d84680002e
:1008a0000900e000050032000900440006000700ce
:1008b0000000e00001003d000084eb00080078002b
:1008c0004f04be0000000600800078000100e00038
:1008d00003003a0000002000d04688000000050018
:1008e0000080eb0002002000828f500002003e00da
:1008f000d14688000000eb00000006000000050063
:10090000889fbe000004780001007800820478000f
:100910008801780009017800110020000e0007000e
:10092000890f5000010032000004eb00080078003d
:100930004f04be00000006000000fa00e8815700e6
:100940004fb997004183200000482000350507007b
:100950000080fa0000000600889fbe008a9fbe004b
:100960008c9fbe008e1f780000067800010478007e
:1009700002007800830478000881b900020778003b
:100980000200e000420032000800e00041003200b6
:1009900082057800c900900069009000808f5000a7
:1009a0000400390009007800500007000000e00052
:1009b0002900350000402000190060000a003200c4
:1009c0000b017800a10020000c0078003600070021
:1009d000800678000d00e000060032006105160078
:1009e0000a854600040037000b0578008006eb00fe
:1009f000010037000b05780049009000e9009000e5
:100a0000808050008a8f500002003100010578007c
:100a10008006eb000a0178008c0078002c000700ab
:100a20008a855500490090000a004000c0049800e3
:100a30000d00e0000400320009007800d500070036
:100a40000000e00004003a000b00e0000200320069
:100a50000a064600cfff3700008020001900600022
:100a60000200320009007800ca00070000c0200020
:100a7000190060000200320049009000e004980074
:100a80008b055700110009008885d8000100370048
:100a90000000eb004f0778004f06be004f05be0078
:100aa0004f04be000000060003003700b0cf100066
:100ab000050032000201e900800178000200e00038
:100ac000faff3a000000050003007800000006006d
:100ad0008001780002003700b15978000201e90076
:100ae0000200e000fcff3a0000000600889fbe0004
:100af0008a1f780000047800c80090006801900008
:100b00000000eb00828f50003c0039001800780094
:100b10002200290002016000e20f510007003200ac
:100b2000012024000000e00001003d000120200021
:100b3000008c70000080eb003000370002002600bf
:100b400002006000820f500009003a003800900057
:100b5000808f500006003900080078008d000700e3
:100b6000800078000080eb000100e00023003a00e4
:100b70001805780000c020000000650018003a0049
:100b8000a80490006002200008004000808f5400fc
:100b900013003a00002020003f01070020049800c5
:100ba0000000e00005003a0029049800490498007c
:100bb0008904e80039049800080037000a60a000a2
:100bc0000a0c78004004980001202000808040003a
:100bd00031049800400c9800500c98000c0007005d
:100be000280090005004980038009000600498009d
:100bf00000002600180c70000000eb004f05780084
:100c00004f04be0000000600a06a20009b003700d1
:100c1000881f7800688d20001804e00003003a0067
:100c2000f9ff070020c0b300004c78004f047800a3
:100c300000000600889fbe000004780008007800cd
:100c400054000700800478000004200018006000b1
:100c50000200320028009000aa0007000000eb000c
:100c600020049800384090000004e00005003500a2
:100c70000000fb00acfe07000000e00001003200b5
:100c80008084eb00181090000000e00008003200a3
:100c9000f0fe07000000e000010032008084eb005d
:100ca00018109000970007000000eb001014980047
:100cb0000008200018006000150032000001eb0061
:100cc0006000b800438820000202d00063027a006e
:100cd000880f520005003a00000040008180480063
:100ce000008041000008eb00060037006100400072
:100cf000e08048000201e800e80f5000e08f580053
:100d0000f0ff3a00080078007e0007000e00370070
:100d1000000c780000c0eb00304498006002200016
:100d200008004000200498004004980050049800f7
:100d3000400c980060049800500c980070049800d3
:100d400076004400000c9800090078004f04be00b3
:100d500000000600881f78000004eb006140b80026
:100d6000e2ff2f00f3ff2f00260307002289200057
:100d7000620078000000e00001003200adff0700d3
:100d80000804e800e80f5400f4ff3a004f0478002c
:100d900000000600889fbe00000478000800e00004
:100da0000e003a008004eb008800d000408820004c
:100db000610078000000e00004003200f5ff070049
:100dc0000000e00001003d008084eb000804e80022
:100dd000e80f5400f4ff3a0025003700000022001d
:100de000180060008004eb0021003200a80490008d
:100df0000f00370009015100384090000000fb004f
:100e00008900780051fe07000000e00007003c0068
:100e1000280090004004980060049800500c98004e
:100e20001890a0008084eb001100370080844400fb
:100e300048019000828f5400eeff39002800900096
:100e4000400498009800780002c0200002816000f1
:100e500001003a003800900001e8a30002003200cf
:100e60006004980001003700500c98008004eb00eb
:100e7000090078004f04be000000060001002000b9
:100e80000100e00008003200010080000100e000e5
:100e9000050032008100e900010088008100d000d7
:100ea0000200800000b1780000000600889fbe00ac
:100eb000000478000100780082047800880178003e
:100ec0000901780011002000a3fe0700890f5000df
:100ed000010032000004eb00080078004f04be005f
:100ee000000006000000fa00e88157004fb99700a3
:100ef0004183200060752000ca0307000080fa00cb
:100f0000000006000000e0002f003200c001780061
:100f1000e38f51002c0036000308a3002a003a009a
:100f2000914680000100e00002003200810f500075
:100f30000400310011009800904688001600370028
:100f400082007800110190000200e00002003200ef
:100f5000800f5100faff39001102780084824000ae
:100f6000850f500018003900808f520003003a00ae
:100f70008308420001007800070037000200e0000b
:100f80000300320083014000830f51000e0039003e
:100f90001200980090009800900090000100e0007e
:100fa0000900320010014000828f500006003a0014
:100fb000028d20000009eb001001780011084100ab
:100fc000910090001100980000000600889fbe006c
:100fd00000047800814680000100e0000200320039
:100fe000010078000d00370091468000208d200020
:100ff00004003700910f5400250036000180e800fe
:10100000910090000100e000faff3a001000370064
:10101000920f54001e0036000280e8001001780094
:101020000200e000faff3a001101780091468000ca
:10103000208d200004003700910f5400140036006a
:101040000180e80091009000828f5000faff3a0082
:10105000c9468000888f5400010031008804780060
:1010600009007800480007000000e00004003a0092
:10107000888f5400050032008904d100f5ff370045
:10108000091878009fff0700d2ff37000000eb002f
:101090004f04be0000000600881f78006304400073
:1010a0000800a1008000eb00800f540021003600f2
:1010b000e30f540001003e004800200008007800c3
:1010c000c2ff07008000eb000000e00019003200c2
:1010d000900078009101780064815100880f5100e0
:1010e000030031001101900002087800070037006a
:1010f00008814000020878009101900013019800d7
:101100001001780011091400880878001001780097
:101110000000eb000200e0000400320092019000a9
:101120000300e000010032000280e80080468800f1
:101130008180e800010078004f047800000006007c
:10114000020037000304e0000600320000017800ce
:1011500002007800b041780081cf5100f9ff3a00d9
:10116000010037000001eb000200780000000600db
:1011700080007800010178003104e000fdff3a00b2
:101180000000510000000600800078000000eb0025
:101190000100e0000500340001007800b6fd070002
:1011a000e10f400001003a000000eb0000000600e3
:1011b000fc874700889fbe008a9fbe008c9fbe00b0
:1011c0008e1f78000006780080c5b30080cf5000e5
:1011d0000a0032007740400080cf50000a00320001
:1011e0006940400080cf50000b003200508a200040
:1011f00080bf9f00ae0020000a0037004289200017
:1012000082bf9f0006003700538a200083bf9f00e3
:101210008e00200003003700548a200084bf9f0006
:101220000e0120003c02be002c03be000605be00dd
:101230000404be0040c6b30080cf5000030032005b
:101240006540400080cf50000b003a00e00f520094
:10125000e08f5a00e00f5b00e08f5b0006003d006e
:101260006000b8006011b800040450008584580084
:101270000605590087855900e80f57000400320021
:1012800040002000f00f570038003a0001003700fe
:1012900030002000e00f5400e08f5c00e00f5d00a4
:1012a000e08f5d0004003a00dc0890008d01200012
:1012b0000100e000060032008e00e9008880600036
:1012c0008fba9700e5c07800f1ef9f007d01200004
:1012d000800078008100e900050033008b05d10013
:1012e0000a85d3008984d3000884d300f9ff37002e
:1012f000089ebe000a96be00120037008d06e90067
:101300008e00e900848060000fb99700e2c1780088
:1013100082fd2f000f01410003f17e008000780064
:101320008100e900050033008783d1000683d300e4
:101330008582d3000482d300f9ff3700049ebe00eb
:101340000696be003c02be002c03be00e00f520019
:10135000e08f5a00e00f5b00e08f5b008b003400f1
:101360000d00e000e5ff3c00880037002c60900095
:1013700081c6b300814f50000b00320006003c00d4
:101380000004e00008003200e6c05000814f500029
:101390004e003a0004003700c1c6b300814f500030
:1013a0004a003a00210037000800e00004003a003b
:1013b0005c0890008d0120000000e0000600320073
:1013c000110009000e84d8000fb99700e2c0780020
:1013d000f1ef9f007d012000110009000e84d8006c
:1013e0000a003700110009000e04d8008d06e9003c
:1013f0000e81b900020454008fb8970061417c004f
:1014000081fd2f008f80400082f07e000004780074
:101410000800e000020032000d00e000f1ff3c0097
:10142000cfc4de00614db90025003700e00f540045
:10143000e08f5c0004003a005c0890008d01200001
:101440000000e000070032006171b9000800be0032
:10145000690107008fb99700e3417800f3ef9f001f
:101460007d0120006171b9000800be005201070033
:101470000b0037006171b9000800be003f01070092
:101480008d06e90000f1b900020454000fba97007c
:10149000e4427c0084fd2f000f02420005f27e0032
:1014a0000004be00e00f5000e08f58000200320040
:1014b0000d00e000efff3c004fcdde008a05780014
:1014c000089ebe000a96be0030003700e00f5400b0
:1014d000e08f5c00e00f5d00e08f5d0004003a00eb
:1014e0005c0890008d0120000000e000090032003f
:1014f0006172b900612bb9000800be000a01be008c
:10150000e60107000fba970064427800f4ef9f00ed
:101510007d0120006172b900612bb9000800be0096
:101520000a01be00d60107000d0037006172b90044
:10153000612bb9000800be000a01be00db010700f4
:101540008d06e90000f2b900040454008fba970038
:1015500065427c0085fd2f008f82420084f27e0070
:10156000009ebe000296be003c04be002c05be00dc
:10157000e00f5400e08f5c00e00f5d00e08f5d0045
:10158000020034000d00e000e8ff3c00e80f5700c7
:1015900010003a000c1090000038a3000d0032003b
:1015a000f78f560006003e0085fd2f008f82420017
:1015b000e5c07e0000c3b30080cf500005003200bc
:1015c0008d06e90002c3b30081fd2f008f8040002b
:1015d00082f07e0078811600120e98006c00900058
:1015e00083fd2f008f8141008d80410038fd070071
:1015f0001c089000dc089000810f500006003d00a0
:1016000000805000000e98000c1090000040a100d7
:10161000001698000f0037000100e0000d003d00ab
:101620008c109000f4806000f08f500009003a00a8
:101630007c099000fc009000810051000c09900092
:1016400082805000008050004240a9000100340018
:10165000000e98004f0778004f06be004f05be00f1
:101660004f04be00cf01b100000006000400fa00e4
:10167000889fbe008a9fbe008c1f780000047800ff
:1016800001067800f80d90007800900080855500e4
:101690000808900080855500180890008085550046
:1016a00028089000808555003808900080855500f6
:1016b00048089000808555000002220090bf9f00de
:1016c00000032300a0bf9f00081090000028a30083
:1016d00015003a000b00e000130034000b05780001
:1016e0008a047800e20f550001003600290020002e
:1016f000c801900009017800ee8057005800900062
:1017000003000100500498000000e0008c0032004b
:101710006808900009004000600c98000905550019
:101720004240a900eeff3c00780190000200e0007a
:101730000c003400c80190008c0078005800900024
:1017400003000100500498008080eb000000e000de
:101750007c003200e8089000780090000080400093
:10176000600c9800880c90000900e0001100340023
:1017700009057800e28f5400010036002a0020009d
:10178000c80190000a017800ec80570058009000d2
:1017900003000100500498000000e00068003200df
:1017a000680890000a004000600c98008a84540089
:1017b000edff3700180990000200e0000c00340033
:1017c000c8019000e800900058009000030001005c
:1017d000500498008080eb000000e00059003200c7
:1017e000e80890001808900000804000600c980005
:1017f000a80c90000900e0001100340009057800f1
:10180000e28f5400010036002a002000c801900039
:101810000a017800ec805700580090000300010096
:10182000500498000000e000450032006808900075
:101830000a004000600c98008a845400edff3700d5
:10184000380990000200e0000e003400e80090002b
:101850001808900080804000c80190005800900057
:1018600003000100500498008080eb000000e000bd
:1018700034003200e80890003808900000804000f2
:10188000600c9800c80c90000900e00011003400c2
:1018900009057800e28f5400010036002a0020007c
:1018a000c80190000a017800ec80570058009000b1
:1018b00003000100500498000000e0002000320006
:1018c000680890000a004000600c98008a84540068
:1018d000edff3700081090008000eb000028a30007
:1018e000180032000b00e000160034008b04780072
:1018f00009057800e28f5400010036002a0020001c
:10190000c80190000a017800ee805700580090004e
:1019100003000100500498000000e00008003200bd
:10192000680890000a004000600c98008a84540007
:101930004240a900eeff3c008000eb0001003700b0
:101940008080eb00010078004f0678004f05be0054
:101950004f04be000080fa00000006000108780075
:101960000000060000c0da000000060000c0da0037
:101970000000060000c0da0000000600839f680037
:101980000100e00002003d0060001000e08018004f
:101990000300e00002003d0060011100e081190039
:1019a000050007004f00e00002003b00600010004f
:1019b000e0801800000006006022b8000602200047
:1019c0000000d0008180d2000482d2008582d20043
:1019d0000000a0000202520083825a00030031007e
:1019e0000202420083824a000000a1000603e900cf
:1019f000f3ff3a0000000600efff07000400be00fe
:101a000000000600020ab900001bb9000200b8007d
:101a1000810042008100430000000600889fbe0054
:101a20008a9fbe0030044200b0844a0030054b005b
:101a300090854b006000b1000898be000a90be007f
:101a40000440e10005c8e10006d0e10007d8e1004c
:101a500002003100680040001008e8004f05be0099
:101a60004f04be0000000600889fbe008a9fbe0093
:101a70003004be002005be000418540005985c0028
:101a800006185d0007985d00110020000440e10089
:101a900005c8e10006d0e10007d8e10001003900e7
:101aa0008000eb00108810004f05be004f04be0000
:101ab000000006001200fa00889fbe008a9fbe0048
:101ac0008c9fbe00e0b79f00f1b79f0082bf9f00d0
:101ad00093bf9f000605be000404be000000eb009b
:101ae000d0b79f00c0b79f00b0b79f00a0b79f00be
:101af00090b79f000006eb005fb19700cfb0970052
:101b0000820141003fb097000200e00004003d0068
:101b1000370007007e805700c0ff07000300370032
:101b2000330007007e805700cfff0700dfb6970025
:101b30000d00e0000c0035006fb29700ffb2970077
:101b40000fbb97009fbb97001000200001002000f2
:101b50006011b800000272008182720002037300fb
:101b6000838373001b0007000c06e80001042000bb
:101b7000810f5600e0ff3a000d00e00004003d0038
:101b80000802be000a03be007e805700a3ff0700c4
:101b90005fa897000000e00005003a001fb2970020
:101ba000afb297003fb39700cfb39700090007008b
:101bb0006fb09700ffb097000fb997009fb99700db
:101bc0004f06be004f05be004f04be000080fa0065
:101bd000000006000100070000000600a4b79f00f7
:101be000b5b79f00c6b79f00d7b79f00000006009b
:101bf0004f09de0082817100b3b79f004f01de0004
:101c00008180400082807000a1b79f008fb0970054
:101c10004f09de00000040000200700090b79f00f6
:101c20007fa897004f01de00818040008280700015
:101c300081b79f000d0007004f3ade000000400012
:101c400004007000f0af9f0008000700040242008b
:101c500085824a0006034b0087834b00dfff0700a5
:101c60000802be000a03be00000006002fb2970063
:101c7000bfb297004fb39700dfb397000000060094
:101c8000881f780018002000881f780089ff07004f
:101c90008f87e9004f04780000000600801feb00ea
:101ca00084ff07008f87e90000000600889fbe00c0
:101cb0008a9fbe00e00f5000e08f5800e00f5900ef
:101cc000e08f59000c003d006044b8006055b8003a
:101cd0000000540081805c0002015d0083815d0092
:101ce000180020001500070008003d00180007003c
:101cf0000004eb00050037000004eb000f000700b4
:101d000002003d001200070018002000dcff070061
:101d10000800e000060032006022b8006033b8001e
:101d20000000520081805a0002015b0083815b0049
:101d30004f05be004f04be0000000600e00f520039
:101d4000e08f5a00e00f5b00e08f5b0000000600b0
:101d50006044b8006055b8000402540085825c00fd
:101d600006035d0087835d0000000600889fbe00bb
:101d70008a9fbe008c1f7800e00f5000e08f580053
:101d8000e00f5900e08f59000d003d006044b8009d
:101d90006055b8000000540081805c0002015d00c5
:101da00083815d001c0020000820e10009a8e100fb
:101db0000ab0e1000bb8e1000d003d00080037005b
:101dc0000006eb00e00f5200e08f5a00e00f5b00ce
:101dd000e08f5b0006003d006044b8006055b8002d
:101de0000402540085825c0006035d0087835d0069
:101df000aaff07000c00e000060032006022b800d5
:101e00006033b8000000520081805a0002015b007c
:101e100083815b004f0678004f05be004f04be0073
:101e2000000006006200fa00889fbe008a1f78004a
:101e300000057800810478000204780083007800af
:101e400080f92f000f004000c4fe07009a979f0002
:101e5000a9979f000000eb00b09f9f001885fb0032
:101e60008a04fb000a05ea004f55de0050022000fc
:101e7000808f54000d003200e10f55000b003a0036
:101e80000a017800880078002f9097009f919700b2
:101e900003000100a0979f000000e0008e003200c8
:101ea0003f9897000000e800b09f9f000a0444009c
:101eb00050022000808f5400040032000900e0002e
:101ec000e6ff3a003f989700840037000000eb00df
:101ed000909f9f00809f9f00f0979f00e0979f003a
:101ee000d0979f00c0979f0007003700a18c20006b
:101ef0000100500000004000e18b200061007800ec
:101f0000df98970001007000d09f9f008804780040
:101f100009047800384578008a00fb00a08c200076
:101f200087fc07000000e000f0ff3a00a1c2b30008
:101f3000814f55000e003a00cf8897000180e900dc
:101f4000c08f9f0010007800c09f9f000000e0003d
:101f500005003d000000ea00c09f9f005f989700c9
:101f60000020a000d09f9f000904e8000f00370068
:101f7000c09f9f000000eb0005003700f2ff270024
:101f8000820f5000020032006a01b9000280400056
:101f90000904780088047800b900fb000103b1004f
:101fa000e98f5000f5ff3600c09f9f00e0c2b300ec
:101fb000984f1000020032000080eb00190037003b
:101fc000a0c2b300d84f100007003a00cf88970096
:101fd0000180e900c08f9f0010007800a09f9f0043
:101fe0000804e800100037000000eb00a09f9f00ed
:101ff0008800780005003700f3ff2700830f5000aa
:10200000020032006a02b9000400410001047800b5
:10201000880078003101fb000203b100e90f510094
:10202000f5ff3600a09f9f00984478008900fb00d0
:10203000608b200042fc07000000e000020032003c
:102040000804e800010037008044eb00c97f9f00ce
:1020500080c6b30080cf540004003a0098cf14002b
:102060000a003a006640500006003700c0c6b300c0
:1020700080cf540005003a0098cf140003003a00c6
:1020800065404000c07f9f000804e8001801fb0085
:10209000e3fb2f008f81410081f92f008f804000ea
:1020a000a0f92f000f004000100007000000e00022
:1020b00009003a00e1fb2f008f804000a0f92f00bb
:1020c0000f00400069fd07000000e000020035003d
:1020d0000804e80061ff37000080eb004f0578003e
:1020e0004f04be000080fa0000000600889fbe007a
:1020f0008a1f780000047800e0c6b300804f5100ca
:10210000c100320015003c006b405000804f510070
:10211000240032000a003c0070405000804f510003
:10212000fa00320065404000804f510068003200e4
:1021300050c2b300804f51000b013a000701370035
:1021400040c6b300804f51001b0032006540400084
:10215000804f510004013a001700370030c7b30028
:10216000804f5100e900320007003c0064405000fd
:10217000804f5100560032000040e800804f51006f
:10218000f9003a00d300370050c7b300804f510028
:102190004f00320063404000804f5100f2003a008f
:1021a0004b0037001181e900820878007800900028
:1021b00012417800ea00370028609000c4c6b300de
:1021c000844f500007003a0011027800640052006a
:1021d000800878001002be004fabde008603780056
:1021e0001100370014c7b300844f500003003200c1
:1021f000a4c6b300844f500006003a0011027800d4
:1022000068005200800878003002be002003be0043
:10221000050037001180e90080087800100278007e
:10222000cfa2de00612bb900049cbe000694be0064
:102230002860900081c6b300814f50000d0032002d
:1022400021c6b300814f500004003a000402fb0095
:10225000cfa2de00612bb9000800370041c7b300f0
:10226000814f500003003200e6c04000814f500013
:1022700004003a00cfa2de00612bb900049cbe002e
:102280000694be003802be002803be00780090000d
:10229000d1c2b300e00f5200e08f5a00e00f5b00a4
:1022a000e08f5b0008003500881090000118a30043
:1022b00002003200b1c2b300030037000108a300de
:1022c0004c00320001c2b300817178004700370032
:1022d00028609000c4c6b300844f500006003a0046
:1022e0001102780064005200800878001002be00dd
:1022f0006033b8001100370014c7b300844f50009a
:1023000003003200a4c6b300844f500006003a0018
:102310001102780068005200800878003002be0088
:102320002003be00050037001180e9008008780016
:10233000100278008002eb006033b800049cbe00fd
:102340000694be002860900081c6b300814f500003
:102350000d00320021c6b300814f500004003a0046
:102360000482fb008002eb006033b80008003700f5
:1023700041c7b300814f500003003200e6c0400067
:10238000814f500004003a008002eb006033b80037
:10239000049cbe000694be00081090000038a30004
:1023a000140032003802be002803be00e00f5200c5
:1023b000e08f5a00e00f5b00e08f5b000d00320001
:1023c00080c7b300804f51000300320080c5b300c6
:1023d000804f510007003a007800900001c3b3001d
:1023e000817178000000e800827178000000e80048
:1023f0007004980078009000808141006304980088
:10240000824078003e00370028619000c3c6b300c8
:102410001180e900834f5100220032000a003c0085
:10242000e4c15100834f51002500320083c1e80010
:10243000834f510013003200e8c15100834f510017
:102440001e003a000a00370043c7b300834f510013
:102450001b003200e6c14100834f510018003200da
:10246000e9c15100834f510014003a0005003700c4
:102470008008780010007800485c900008487800d8
:10248000410037008008780010007800680a90004a
:10249000cfa2de00612bb9000498be000690be00fa
:1024a0003900370080087800100078006809900033
:1024b000cf91de000288be00330037001180e900b2
:1024c0008008780010007800680c900008087800f8
:1024d0002d0037001180e900800878001002780094
:1024e000cfa2de00612bb900049cbe000694be00a2
:1024f00078009000808141006304980081c7b30098
:10250000080078002afb07001f0037001180e9004f
:1025100080087800100578006a049800d80c9000b4
:102520000900e00004003d000a00780010fb0700ed
:102530008004780007003700090178008000eb0074
:102540000a00780058f907000000e000010032009e
:102550008a045000190c98000b0037007800900096
:102560008271780006003700780090008081410079
:102570000204e00001003a0052c2b3008249780030
:102580000000e800700498000000eb004f057800a0
:082590004f04be00000006002c
:020000040000fa
:10259800504900004e3a000020520000413000002f
:1025a8000a0d000000430000617200006174000021
:1025b8007465000072650000207200006963000005
:1025c80065760000757400006f3a00002025000051
:0825d800630a00000d00000081
:020000040000fa
:1025e0000000fa000a00070033000700c02c290091
:1025f000801f78003bfa07008f87e9005a00070028
:10260000680007002c03a800c002a800ffff3700e5
:102610000000fa0090022000303a8800213a800041
:10262000f0f32f0000806000203a8800213a8000fb
:1026300000fe2f0000806000203a88004827ef004d
:1026400040a7a9001200200080072000a109200057
:1026500033742000804978008149780082497800ed
:102660001200200060042000710520002374200067
:102670008049780081497800824978000000000094
:10268000113a8000000027008080600000002100d7
:10269000808f5000faff3a0000000000113a8000dd
:1026a00000022000008060000000e000fbff32001c
:1026b0000080fa00000006000000fa000080eb0035
:1026c00060198800c862a900c842a80021358000ae
:1026d00000fe2f00008060000010a0002035880060
:1026e00011368000f00f2e00808060000030200046
:1026f00001007000103688002002a900011180003e
:1027000090ff2f00008060000011880020a2a90027
:102710002062a900e00720004011880021e2a80003
:102720002342a80010002000a04688000080fa0084
:10273000000006000200fa00004f780000000000d0
:102740001111800000102000008060000000e000f7
:10275000fbff32008580a9001e00fb0020118800cd
:102760000080fa00000006000000fa0005e1a90060
:102770000421a90004c1a90021088000f0fc2f0059
:1027800000806000200888000021ef0090202000d9
:10279000100888008460a9009460a8000080fa00f6
:1027a000000006000000fa006040a8009660a80043
:0c27b0008660a9000080fa00000006000e
:020000040000fa
:1027bc00000800000c00000000000000d40800001d
:1027cc000200000002000000010000000c080000e4
:1027dc008800000002000000010000000032080028
:1027ec003308320008320800320832000822080090
:1027fc0000000000000000000000000000000000cd
:10280c0000000000000000000000000000020800b2
:10281c0001015a00085b08005a085a00085a0800bf
:10282c005a084a00080000000000000000000000e8
:10283c00000000000000000000000000000000008c
:10284c0000000200080202008208830008820800cf
:10285c008208820008820800720800000000000054
:10286c00000000000000000000000000000000005c
:10287c0000000000000000000c083400085c080098
:10288c00000000000000000000000000000000003c
:10289c00d60800000200000000000000d80800006c
:1028ac00020000000200000004000000d00800003c
:1028bc00040000000000000094080000220000004a
:1028cc000200000030313200333435003637380026
:1028dc003941420043444500460030003132330058
:1028ec003435360037383900616263006465660040
:1028fc0000000000da0800000200000000000000e8
:10290c00b60800001a00000002000000686a6c00a3
:10291c00747a4c0000000100000200000400080062
:10292c0000100000000020002b2d230030000000c0
:04293c000000000097
:020000040000fa
:0200000401f009
:04000c008000000070
:020000040000fa
:0200000401f009
:040010006700000085
:020000040000fa
:0200000401f009
:040014005f00000089
:00000001FF
