:0400000004EF09F010
:10100000004361726174746572652072696365760C
:1010100075746F3A2025630A0D000A0D5245534539
:05102000540A0D000060
:10102600EDEC08F0F6EC08F0DEEC08F01A0E026EB5
:10103600100E036EA2EC08F00F013891928080B07A
:10104600FED7FF0ED76E2F0ED66ED58E000E116E02
:10105600000E106E000E0F6E000E0E6E000E0D6E60
:10106600000E176E000E166E000E156E000E146E34
:10107600000E136E000E126E25D0F2A423D0FF0EC2
:10108600D76E740ED66EF29480A003D00A6A0A2A2E
:1010960001D00A6A0A500D6E0E6A10C00AF00DC021
:1010A6000BF00EC00CF00A2A03D0D8900B360C3683
:1010B6000A2EFBD716500B10166E17500C10176E13
:1010C600104A112A115004E1090E105CD8A0D5D798
:1010D600155020E11BD014C00AF016C00BF017C043
:1010E6000CF00A2A03D0D8900C320B320A2EFBD70A
:1010F600010E0B16000E0C1612500B24126E135016
:101106000C20136E144A152A155004E1090E145CBE
:10111600D8A0E1D712A003D0000E0F6E02D016C0E1
:101126000FF0F2A4FED7D59EF294010E026E100EB9
:10113600036E0FC004F0056AA2EC08F080D7040E17
:10114600076E000E086E2AD0250E0918D8B404D0F2
:101156000950FEEC08F022D0000E066E0ED007C035
:10116600D9FF08C0DAFFDF50096E020E0726000E0F
:1011760008220950FEEC08F011D002C0F6FF03C0A9
:10118600F7FF024A032A0800F5CF09F00950000AC2
:10119600D8B41200630AD8B4E2D7EBD702C0F6FF80
:1011A60003C0F7FF024A032A0800F5CF09F00950E9
:1011B600D8B41200C9D7949C948EAC98AC9CAC8AD7
:1011C600AB9CAB88AB8EB896AC94330EAF6E9D9845
:1011D6009D9A1200FC0ED316D388D38AD38C9B8C8F
:1011E600D3B41200FDD7D59AD59ED59CD596D59069
:1011F600D592D5941200016EACA2FED701C0ADFF08
:0C1206001200000EF86E000113EF08F05B
:020000040020DA
:08000000FFFFFFFFFFFFFFFF00
:020000040030CA
:0E000000FF281E3CFFBF85FF0FC00FE00F4022
:00000001FF
